:100000000C942A000C9460050C949B050C94AA0592
:100010000C9447000C94FA060C9447000C9447008B
:100020000C9447000C9447000C9447000C94470034
:100030000C9447000C9447000C9447000C94470024
:100040000C9447000C9447000C9447000C94470014
:100050000C94470011241FBECFE5D8E0DEBFCDBF12
:1000600013E0A0E6B0E0ECE7F2E102C005900D92EB
:10007000A830B107D9F723E0A8E0B3E001C01D9292
:10008000A931B207E1F70E94BC030C943C090C941F
:1000900000000E94F9010E94DA020E94EA0180E059
:1000A0000E94D30562E08AE00E94C10360E08BE019
:1000B0000E94C10308950F931F93CF93DF93CDB791
:1000C000DEB76F970FB6F894DEBF0FBECDBF88E0E6
:1000D000E6E5F2E0DE01119601900D928A95E1F7D6
:1000E00083E1E5EFF2E0DE01199601900D928A9529
:1000F000E1F780E090E0AAE7B4E48C8F9D8FAE8FAB
:10010000BF8F0E948F03CE0109960E948A01811140
:100110006AC00E94BB0181114CC06C8D7D8D8E8D9B
:100120009F8D20E030E44CE955E40E94B907181691
:10013000FCF0CE014C960E94CA01882309F46DC0E0
:1001400063E081E00E9493038EE592E00E942A031F
:1001500065E082E00E9493038CE692E00E942A030D
:1001600060E070E88BE395E40E94CE0680E056C024
:1001700064E081E00E94930385E792E00E942A03F5
:1001800061E082E00E9493038FE792E00E942A03DD
:100190006FE082E00E94930362E0CE0101960E942C
:1001A000A10360E070E88BE395E40E94CE0680E056
:1001B00035C00E94EF0164E081E00E9493038DE866
:1001C00092E00E942A0361E082E00E94930385E9A5
:1001D00092E00E942A0360E070E88BE395E40E94BD
:1001E000CE0680E01BC00E94EF0164E081E00E9427
:1001F00093038DE892E00E942A0361E082E00E946E
:10020000930386EA92E00E942A0360E070E88BE3A1
:1002100095E40E94CE0680E001C081E0882309F4C5
:100220006EC00E94F40100916000109161002C8D5D
:100230003D8D4E8D5F8DF80160817181828193814A
:100240000E943507F80160837183828393830E9443
:100250008F0364E081E00E94930386EB92E00E94AA
:100260002A0363E082E00E94930380EC92E00E9404
:100270002A0360E070E88BE395E40E94CE060E94BA
:100280008F0364E081E00E9493038DEC92E00E9472
:100290002A0360E082E00E94930387ED92E00E94CF
:1002A0002A03E0916000F091610060817181828198
:1002B00093810E9430080E943D0381EE92E00E94EB
:1002C0002A0360E070E88BE395E40E94CE060E946A
:1002D0008F0364E081E00E94930385EE92E00E9428
:1002E0002A0366E082E00E9493038FEE92E00E9470
:1002F0002A0360E070E88BE395E40E94CE066F96D7
:100300000FB6F894DEBF0FBECDBFDF91CF911F9126
:100310000F910895DC0180E020E021C0292F30E01A
:10032000FD01E20FF31F6081409160005091610078
:10033000FA01E20FF31F2581621303C09F5F21E0E2
:1003400009C0475E5F4F509361004093600020E01A
:1003500003C090E0923110F3211103C08F5F8A3007
:10036000C0F3211106C0109261001092600083E07A
:10037000089580E0089580911703811108C0E091ED
:100380006000F09161009481913019F401C00895EA
:1003900085E00895CF9320911703211116C0C091D5
:1003A0001503C11112C0DC01E0916000F091610001
:1003B00060817181828193812D913D914D915C91FC
:1003C0000E94B907882314F002C002C0C4E08C2F39
:1003D000CF91089560E08BE00E94C103089561E031
:1003E0008BE00E94C304089560E08BE00E94C30488
:1003F0000895CF93C2E109C060E08C2F0E94C10331
:1004000061E08C2F0E94C304CF5FC531A8F3C5E122
:1004100005C062E08C2F0E94C103CF5FC831C8F3D2
:10042000CF910895CF93C82F60E081E00E94C3046C
:1004300060E082E00E94C304C4FB662760F984E0A8
:100440000E94C304C5FB662760F985E00E94C304CF
:10045000C6FB662760F986E00E94C3046C2F661F06
:100460006627661F87E00E94C30461E083E00E9464
:10047000C30489EF90E00197F1F700C0000060E04D
:1004800083E00E94C30489EF90E00197F1F700C078
:1004900000006C2F617084E00E94C304C1FB6627DA
:1004A00060F985E00E94C304C2FB662760F986E01C
:1004B0000E94C304C3FB662760F987E00E94C3045F
:1004C00061E083E00E94C30489EF90E00197F1F7B7
:1004D00000C0000060E083E00E94C30489EF90E068
:1004E0000197F1F700C00000CF910895CF93C82F76
:1004F00061E081E00E94C30460E082E00E94C304E6
:10050000C4FB662760F984E00E94C304C5FB66272C
:1005100060F985E00E94C304C6FB662760F986E0A7
:100520000E94C3046C2F661F6627661F87E00E9427
:10053000C30461E083E00E94C30489EF90E0019767
:10054000F1F700C0000060E083E00E94C30489EF7F
:1005500090E00197F1F700C000006C2F617084E01B
:100560000E94C304C1FB662760F985E00E94C304B2
:10057000C2FB662760F986E00E94C304C3FB6627BE
:1005800060F987E00E94C30461E083E00E94C30435
:1005900089EF90E00197F1F700C0000060E083E090
:1005A0000E94C30489EF90E00197F1F700C00000BA
:1005B000CF91089560E081E00E94C10360E082E095
:1005C0000E94C10360E083E00E94C10360E084E018
:1005D0000E94C10360E085E00E94C10360E086E004
:1005E0000E94C10360E087E00E94C10383ED90E3B5
:1005F0000197F1F700C0000082E00E94120289EF2B
:1006000090E00197F1F700C0000088E20E9412021A
:1006100089EF90E00197F1F700C000008CE00E94A4
:10062000120289EF90E00197F1F700C0000081E02D
:100630000E94120283EF91E00197F1F700C00000E1
:1006400086E00E94120289EF90E00197F1F700C066
:10065000000008950F931F93CF938C01C0E003C057
:100660000E947602CF5FF801EC0FF11D80818111AD
:10067000F7CFCF911F910F910895CF92DF92EF9214
:10068000FF921F93CF93DF93CDB7DEB760970FB67E
:10069000F894DEBF0FBECDBF6B017C01672B682BCA
:1006A000692B19F480E30E94760210E015C0C7019F
:1006B000B6012AE030E040E050E00E941A09E1E093
:1006C000F0E0EC0FFD1FE10FF11D605D60831F5F27
:1006D000C22ED32EE42EF52EC114D104E104F10470
:1006E00031F70DC0E12FF0E0319781E090E08C0F01
:1006F0009D1FE80FF91F80810E9476021150111191
:10070000F1CF60960FB6F894DEBF0FBECDBFDF917C
:10071000CF911F91FF90EF90DF90CF90089581E0EF
:100720000E9412020895813029F480E8860F0E9409
:1007300012020895823021F480EC860F0E9412028A
:1007400008950F931F93CF938C01862F90E0089606
:10075000880F880F880F0E941202C0E007C0F801BE
:10076000EC0FF11D80810E947602CF5FC830B8F394
:10077000CF911F910F9108950E9449000E945B0044
:10078000FDCF982F9695969596958770953008F0A1
:10079000F8C0613031F008F4A4C0623009F451C0EF
:1007A000EFC09130C1F028F0923039F19330B9F1B7
:1007B000E7C04AB321E030E0B90102C0660F771FFD
:1007C0008A95E2F7CB018095942F98239ABB9BB32F
:1007D00089238BBBD5C047B321E030E0B90102C00B
:1007E000660F771F8A95E2F7CB018095942F9823A7
:1007F00097BB98B3892388BBC3C044B321E030E0E2
:10080000B90102C0660F771F8A95E2F7CB01809588
:10081000942F982394BB95B3892385BBB1C041B372
:1008200021E030E0B90102C0660F771F8A95E2F738
:10083000CB018095942F982391BB92B3892382BBDF
:100840009FC09130C1F028F0923039F19330B9F166
:1008500097C04AB321E030E0B90102C0660F771FAC
:100860008A95E2F7CB01962F909594239ABB9BB380
:10087000892B8BBB85C047B321E030E0B90102C0B2
:10088000660F771F8A95E2F7CB01962F90959423F8
:1008900097BB98B3892B88BB73C044B321E030E089
:1008A000B90102C0660F771F8A95E2F7CB01962F38
:1008B0009095942394BB95B3892B85BB61C041B3BC
:1008C00021E030E0B90102C0660F771F8A95E2F798
:1008D000CB01962F9095942391BB92B3892B82BB29
:1008E0004FC09130C1F028F0923039F19330B9F116
:1008F00047C04BB321E030E0B90102C0660F771F5B
:100900008A95E2F7CB01962F909594239BBB9AB3DF
:10091000892B8ABB35C048B321E030E0B90102C061
:10092000660F771F8A95E2F7CB01962F9095942357
:1009300098BB97B3892B87BB23C045B321E030E038
:10094000B90102C0660F771F8A95E2F7CB01962F97
:100950009095942395BB94B3892B84BB11C042B36B
:1009600021E030E0B90102C0660F771F8A95E2F7F7
:10097000CB01962F9095942392BB91B3892B81BB89
:10098000089582E00895982F96959695969587708C
:10099000953008F08DC0633008F08CC0613009F0EC
:1009A00040C09130A1F028F09230F9F0933059F125
:1009B00083C04BB321E030E0B90102C0660F771F5E
:1009C0008A95E2F7CB01842B8BBB80E0089548B376
:1009D00021E030E0B90102C0660F771F8A95E2F787
:1009E000CB01842B88BB80E0089545B321E030E043
:1009F000B90102C0660F771F8A95E2F7CB01842BFD
:100A000085BB80E0089542B321E030E0B90102C027
:100A1000660F771F8A95E2F7CB01842B82BB80E0BB
:100A20000895611144C09130A9F028F0923009F185
:100A3000933071F143C04BB321E030E0B90102C003
:100A4000660F771F8A95E2F7CB01809584238BBBD5
:100A500080E0089548B321E030E0B90102C0660F9C
:100A6000771F8A95E2F7CB018095842388BB80E0CD
:100A7000089545B321E030E0B90102C0660F771F49
:100A80008A95E2F7CB018095842385BB80E00895A9
:100A900042B321E030E0B90102C0660F771F8A95AA
:100AA000E2F7CB018095842382BB80E0089508950E
:100AB00082E0089583E0089580E0089580E008953D
:100AC0001F920F920FB60F9211242F933F934F93C3
:100AD0005F936F937F938F939F93AF93BF93EF93A6
:100AE000FF9310920803E0910B03F0910C033097F1
:100AF00089F0099560E080E10E94C30460E081E133
:100B00000E94C30460E082E10E94C30460E083E1CC
:100B10000E94C304FF91EF91BF91AF919F918F917C
:100B20007F916F915F914F913F912F910F900FBEE9
:100B30000F901F9018951F920F920FB60F921124CD
:100B40008F9381E0809308038F910F900FBE0F90D9
:100B50001F9018951F920F920FB60F9211242F938A
:100B60003F934F935F936F937F938F939F93AF9335
:100B7000BF93EF93FF93E0910903F0910A0330973D
:100B800009F00995FF91EF91BF91AF919F918F91DE
:100B90007F916F915F914F913F912F910F900FBE79
:100BA0000F901F9018958130F1F028F0823099F065
:100BB000833049F020C083B78F7B83BF83B7877FA3
:100BC00083BF84E0089583B7806483BF83B7877F42
:100BD00083BF84E0089583B78F7B83BF83B788602A
:100BE00083BF84E0089583B7806483BF83B7886040
:100BF00083BF84E0089581E00895823009F128F4EC
:100C0000882341F0813089F03CC0853021F1863065
:100C100069F137C083B7816083BF83B78D7F83BF9E
:100C200083B78B7F83BF84E0089583B7826083BFDF
:100C300083B78E7F83BF83B78B7F83BF84E00895A4
:100C400083B7816083BF83B7826083BF83B78B7FA5
:100C500083BF84E0089583B7846083BF83B78D7FAB
:100C600083BF83B78E7F83BF84E0089583B781609D
:100C700083BF83B78D7F83BF83B7846083BF84E0E6
:100C8000089580E00895CF92DF92EF92FF926B017A
:100C90007C0120E030E040E853E40E94B90788235B
:100CA00094F420E030E0A901C701B6010E941509C3
:100CB00088235CF0C701B6010E94A2070E94300899
:100CC00062BF84E003C083E001C083E0FF90EF9047
:100CD000DF90CF9008958F929F92AF92BF92CF9264
:100CE000DF92EF92FF924B015C0120E030E0A9011E
:100CF0000E941509181694F01EC008B600FEFDCF1C
:100D000088B7816088BF20E030E040E85FE3C7013A
:100D1000B6010E9436076B017C0103C0C12CD12CA7
:100D20007601A5019401C701B6010E94B907882385
:100D300024F384E02AC020E030E0A901C501B40119
:100D40000E94B90718169CF482E01FC008B600FE86
:100D5000FDCF88B7816088BF20E030E040E85FE3E6
:100D6000C701B6010E9436076B017C0103C0C12C8C
:100D7000D12C760120E030E040E85FE3C701B60106
:100D80000E94B907882314F384E0FF90EF90DF906E
:100D9000CF90BF90AF909F908F90089520E030E06B
:100DA0004AE754E40E94BE072DEB37E346E859E3D7
:100DB0000E94BE070E94A207609311037093120362
:100DC000809313039093140380E00E94D30560E0A6
:100DD00070E0CB010E94430680E00E94FD05609117
:100DE00011037091120380911303909114030E94D8
:100DF0006B0608951F920F920FB60F9211242F9336
:100E00008F939F93AF93BF9380910D0390910E03A7
:100E1000A0910F03B09110038C342CE49207A1052C
:100E2000B10564F40196A11DB11D80930D0390934B
:100E30000E03A0930F03B09310030DC08C349C4499
:100E4000A105B10541F410920D0310920E0310920A
:100E50000F0310921003BF91AF919F918F912F912B
:100E60000F900FBE0F901F9018955058BB27AA27C0
:100E70000E944D070C94C3080E94B50838F00E94E8
:100E8000BC0820F039F49F3F19F426F40C94B20802
:100E90000EF4E095E7FB0C948308E92F0E94D40838
:100EA00058F3BA17620773078407950720F079F49F
:100EB000A6F50C940E090EF4E0950B2EBA2FA02D7A
:100EC0000B01B90190010C01CA01A0011124FF27F7
:100ED000591B99F0593F50F4503E68F11A16F040F2
:100EE000A22F232F342F4427585FF3CF46953795F1
:100EF0002795A795F0405395C9F77EF41F16BA0BB6
:100F0000620B730B840BBAF09150A1F0FF0FBB1F63
:100F1000661F771F881FC2F70EC0BA0F621F731FAC
:100F2000841F48F4879577956795B795F7959E3F09
:100F300008F0B0CF9395880F08F09927EE0F97959A
:100F4000879508950E94F60890F09F3748F4911114
:100F500016F40C940F0960E070E080E89FE30895B8
:100F600026F01B16611D711D811D0C9489080C94BF
:100F7000A4080E945F0808F481E008950E94D20747
:100F80000C94C3080E94BC0858F00E94B50840F0B9
:100F900029F45F3F29F00C94830851110C940F0938
:100FA0000C94B2080E94D40868F39923B1F3552336
:100FB00091F3951B550BBB27AA276217730784076C
:100FC00038F09F5F5F4F220F331F441FAA1FA9F302
:100FD00035D00E2E3AF0E0E832D091505040E695F0
:100FE000001CCAF72BD0FE2F29D0660F771F881F51
:100FF000BB1F261737074807AB07B0E809F0BB0B44
:10100000802DBF01FF2793585F4F3AF09E3F510557
:1010100078F00C9483080C940F095F3FE4F3983E3A
:10102000D4F3869577956795B795F7959F5FC9F740
:10103000880F911D9695879597F90895E1E0660FC1
:10104000771F881FBB1F621773078407BA0720F03A
:10105000621B730B840BBA0BEE1F88F7E0950895A3
:101060000E94DC0888F09F5798F0B92F9927B75154
:10107000B0F0E1F0660F771F881F991F1AF0BA953C
:10108000C9F714C0B13091F00E940E09B1E0089583
:101090000C940E09672F782F8827B85F39F0B93F75
:1010A000CCF3869577956795B395D9F73EF49095EF
:1010B0008095709561957F4F8F4F9F4F0895990F41
:1010C0000008550FAA0BE0E8FEEF16161706E80712
:1010D000F907C0F012161306E407F50798F0621B33
:1010E000730B840B950B39F40A2661F0232B242B08
:1010F000252B21F408950A2609F4A140A6958FEF27
:10110000811D811D089597F99F6780E870E060E078
:101110000895882371F4772321F09850872B762F38
:1011200007C0662311F499270DC09051862B70E0FB
:1011300060E02AF09A95660F771F881FDAF7880F0C
:101140009695879597F908959F3F31F0915020F437
:10115000879577956795B795880F911D9695879593
:1011600097F908959FEF80EC089500240A941616CD
:10117000170618060906089500240A941216130685
:10118000140605060895092E0394000C11F4882313
:1011900052F0BB0F40F4BF2B11F460FF04C06F5F2F
:1011A0007F4F8F4F9F4F089557FD9058440F551F05
:1011B00059F05F3F71F04795880F97FB991F61F0D9
:1011C0009F3F79F087950895121613061406551F50
:1011D000F2CF4695F1DF08C0161617061806991FBC
:1011E000F1CF869571056105089408950E94DC0889
:1011F000A0F0BEE7B91788F4BB279F3860F4161635
:10120000B11D672F782F8827985FF7CF8695779540
:101210006795B11D93959639C8F30895E894BB2757
:1012200066277727CB0197F908950E945F0808F495
:101230008FEF0895A1E21A2EAA1BBB1BFD010DC062
:10124000AA1FBB1FEE1FFF1FA217B307E407F50776
:1012500020F0A21BB30BE40BF50B661F771F881F52
:10126000991F1A9469F760957095809590959B01E8
:0C127000AC01BD01CF010895F894FFCF40
:10127C00620000B88847003437383532313435369F
:10128C00393233363534393732000000409C450151
:10129C0031393735363438373532313336393534F0
:1012AC00373800000000FA44003839383933373603
:1012BC003135343336383531313233000000401C8F
:1012CC0046003333333333333333333434343434FD
:1012DC0034343434000000409C4500353535353508
:1012EC003535353538383838383838383800000026
:1012FC0000000000000000000000000000000000E2
:10130C0000000000000000000000000000000000D1
:10131C0000000000000000000000000000000000C1
:10132C0000000000000000000000000000000000B1
:10133C0000000000000000000000000000000000A1
:10134C000000000000000000000000000000000091
:10135C000000000000000000000000000000000081
:10136C000000000000000000000000000000000071
:10137C000000000000000000000000000000000061
:10138C000000000000000000000000000000000051
:10139C000000000000000000000000000000000041
:1013AC000000000000000000000000000000000031
:1013BC000000000000000000000000000000000021
:1013CC000000000000000000000000000000000011
:1013DC000000000000000000000000000000000001
:1013EC0000000000000000000000000000000000F1
:1013FC0000000000000000000000000000000000E1
:10140C0000000000000000000000000000000000D0
:10141C0000000000000000000000000000000000C0
:10142C0000000000000000000000000000000000B0
:10143C0000000000000000000000000000000000A0
:10144C000000000000000000000000000000000090
:10145C000000000000000000000000000000000080
:10146C00000000000000040E0E0E1F000400494E88
:10147C0053554646494349454E5420002046554E47
:10148C0044202121004D4158204C494D4954002005
:10149C004953204558434545444544200054484948
:1014AC005320495300412053544F4C454E20434147
:1014BC0052442021210041204652415544204341B1
:1014CC00524420212100415050524F564544200097
:1014DC005452414E53414354494F4E200052454DB6
:1014EC0041494E494E470042414C414E4345203AFA
:1014FC00002E303000454A454354494E47200043A6
:10150C004152442000383938393337363135343389
:08151C0036383531313233005D
:00000001FF
