S00B000041544D2E7372656337
S11300000C9456000C9429090C9452090C9461091F
S11300100C9473000C94BB0B0C9473000C9473003D
S11300200C9473000C9473000C9473000C94730080
S11300300C9473000C9473000C9473000C94730070
S11300400C9473000C9473000C9473000C94730060
S11300500C947300AE09B809C209CC09D609E009A9
S1130060EA095E0B690B7F0B740B8A0B950BA00BD3
S11300704E414E494E495459494E46CDCCCC3D0A89
S1130080D7233C17B7D13877CC2B329595E6241F6C
S1130090B14F0A000020410000C84200401C462025
S11300A0BCBE4CCA1B0E5AAEC59D740011241FBEA3
S11300B0CFE5D8E0DEBFCDBF13E0A0E6B0E0EAE0D4
S11300C0F1E202C005900D92A632B107D9F723E000
S11300D0A6E2B3E001C01D92A235B207E1F70E9487
S11300E0AA060C9483100C94000083E080937100A2
S11300F0089583E00E948A0962E08AE10E94AF06C3
S113010080E00E949A0861E080E00E94BE0865E7F2
S113011070E080E00E941A090E941C040E94C50538
S11301200E940D0480E00E94000A61E08AE00E94BF
S1130130AF0660E08BE00E94AF060E94AD0B08950D
S11301408DE292E00E94150660E070E08AE794E494
S11301500E94FB0A82E080937100089560E081E0D0
S11301600E947E068EE392E00E94150608951F9376
S1130170CF93DF9310E0C12FD0E0CE018A5D9C4F76
S11301800E94F5098823B9F3FE01EA5DFC4F8081E2
S1130190811125C010820E947A0686E293E00E94B3
S11301A0150660E070E88BE395E40E94FB0A6BE4BB
S11301B073E08AE00E944E080E947A0661E081E0C2
S11301C00E947E068FE492E00E94150660E070E0D3
S11301D088E493E40E94FB0A1092370302C01F5F75
S11301E0CACF6BE473E08AE00E944E080E94350493
S11301F0C82F90913703953048F084E080937100C4
S113020081E080933603109237034CC080914A03F7
S1130210813049F482E08093360384E08093710056
S1130220109237033FC0823029F5943090F022C0F9
S11302306BE473E08AE00E944E0860913703E62F76
S1130240F0E0E85CFC4F80E380836C5F82E00E9416
S11302507E0680914B03813021F480914A038230E1
S113026039F38EE592E00E941506809137038F5F83
S113027080933703CC2309F4B4CF60913703E62F7E
S1130280F0E0E85CFC4FC0836C5F82E00E947E0675
S11302908EE592E00E941506809137038F5F80936C
S11302A037039FCFDF91CF911F9108951AC0822FFA
S11302B090E0FC01E85CFC4F3081FC01E459FF4F05
S11302C08081381719F081E0809336032F5F01C0D5
S11302D020E0243060F380913603813011F01092D5
S11302E0360380913603823099F3813009F04DC092
S11302F080917200833060F583E0809371001092E6
S113030037030E947A0663E081E00E947E0680E65D
S113031092E00E94150667E082E00E947E068BE66A
S113032092E00E9415066091720070E080E090E017
S11303300E942806809172008F5F8093720060E0B3
S113034070E08AEF94E40E94FB0A0E947A061DC0C2
S113035060E080E690E00E948F060E9412040E94F2
S11303607A0663E081E00E947E0684E792E00E94C0
S1130370150680E00E948C0680E00E94AC0860E0D4
S113038070E583E498E40E94FB0A809136038111AE
S11303900AC085E08093710081E08093720010921E
S11303A037030E947A0608951F93CF93DF930E9428
S11303B07A0660E081E00E947E068EE792E00E9469
S11303C0150660E082E00E947E068BE892E00E94BF
S11303D01506D0E0C0E052C00E943504182F6BE42B
S11303E073E08AE00E944E080CC06BE473E08AE07C
S11303F00E944E08ED2FF0E0EA5CFC4F80E380831E
S1130400C1E080914A03823021F480914B03813012
S113041061F3112389F1ED2FF0E0EA5CFC4F1083C6
S1130420C1E02AC080914A03813059F4ED2FF0E0F5
S1130430EA5CFC4F108286E080937100D5E0C0E056
S11304401BC08230C9F06BE473E08AE00E944E085E
S1130450C0E00EC06C2F6D1B6D5F82E00E947E06B3
S1130460EC2FF0E0EA5CFC4F80810E948C06CF5FA9
S1130470DC1780F7DF5FC0E0C130A1F2D53008F4AB
S1130480ABCFDF91CF911F9108950F931F93CF931B
S1130490DF9300D000D0CDB7DEB760E080E690E017
S11304A00E948F0686E393E00E94BC0E69837A83E0
S11304B08B839C830E947A0686E393E00E94150650
S11304C060E082E00E947E060E947A0686E293E063
S11304D00E94AD03811180C00E94DE0381115BC0C4
S11304E069817A818B819C812091680030916900B7
S11304F040916A0050916B000E94890C18164CF1CF
S1130500CE0101960E94ED03882309F486C063E0BE
S113051081E00E947E0683E992E00E94150665E070
S113052082E00E947E0681EA92E00E9415066FE056
S113053082E00E947E0680E00E948C0660E070E00B
S11305408AE794E40E94FB0A85E08093710080E0CE
S113055065C064E081E00E947E068AEA92E00E941F
S1130560150661E082E00E947E0684EB92E00E9420
S113057015066FE082E00E947E0680E00E948C06F1
S113058060E070E08AE794E40E94FB0A85E08093CF
S1130590710080E043C00E94120464E081E00E9484
S11305A07E0682EC92E00E94150661E082E00E94E1
S11305B07E068AEC92E00E9415066FE082E00E94BB
S11305C07E0680E00E948C0660E074E284EF98E48A
S11305D00E94FB0A80E022C00E94120464E081E0D1
S11305E00E947E0682EC92E00E94150661E082E0A1
S11305F00E947E068BED92E00E9415066FE082E079
S11306000E947E0680E00E948C0660E070E08AE72B
S113061094E40E94FB0A80E001C081E0882309F48D
S113062073C00E9417040091730010917400298113
S11306303A814B815C81F80160817181828193816F
S11306400E94050CF80160837183828393830E9466
S11306507A0664E081E00E947E068BEE92E00E94BE
S1130660150663E082E00E947E0685EF92E00E9418
S1130670150660E070E08AE794E40E94FB0A0E9499
S11306807A0664E081E00E947E0682E093E00E94A4
S1130690150660E082E00E947E068CE093E00E94F2
S11306A01506E0917300F09174006081718182817C
S11306B093810E94000D0E9428068FE892E00E9418
S11306C0150660E070E08AE794E40E94FB0A0E9449
S11306D07A0664E081E00E947E0686E193E00E944F
S11306E0150666E082E00E947E0680E293E00E94A6
S11306F0150660E070E08AE794E40E94FB0A0E9419
S11307007A0681E0809371000F900F900F900F9004
S1130710DF91CF911F910F910895809171008130E5
S113072019F40E94A0000895823019F40E94AE00CA
S11307300895833019F40E94B7000895843019F4A1
S11307400E9456010895853019F40E94D401089539
S1130750863011F40E9445020895DC0180E020E017
S113076021C0292F30E0FD01E20FF31F6081409189
S1130770730050917400FA01E20FF31F2581621394
S113078003C09F5F21E009C04A5E5F4F509374002D
S11307904093730020E003C090E0903110F32111E6
S11307A003C08F5F8A30C0F3211106C01092740019
S11307B01092730083E0089580E0089580914E03C1
S11307C0811108C0E0917300F0917400948191301C
S11307D019F401C0089585E00895CF9320914E0344
S11307E0211116C0C0914C03C11112C0DC01E0916B
S11307F07300F091740060817181828193812D91E5
S11308003D914D915C910E94890C882314F002C0A3
S113081002C0C4E08C2FCF91089560E08BE00E9469
S1130820AF06089561E08BE00E94B107089560E08F
S11308308BE00E94B1070895CF93C2E109C060E044
S11308408C2F0E94AF0661E08C2F0E94B107CF5F0E
S1130850C531A8F3C5E105C062E08C2F0E94AF0644
S1130860CF5FC831C8F3CF910895FF920F931F93C0
S1130870CF93DF931F92CDB7DEB781E0898302E186
S1130880B1C060E0802F0E94B10787E893E101972F
S1130890F1F700C0000015E19DC0BE016F5F7F4FFE
S11308A0812F0E944E0891C0BE016F5F7F4F812F40
S11308B00E944E08033129F118F4023139F070C056
S11308C00431D1F1053109F451C06AC0163151F037
S11308D020F4153109F466C078C0173141F018319D
S11308E059F073C00F2EF8E3FF2EF02D6EC00F2EBB
S11308F0F9E3FF2EF02D69C00F2EFFE2FF2EF02D3D
S113090064C0163151F020F4153109F450C05DC0B3
S1130910173141F0183159F058C00F2EF5E3FF2E6E
S1130920F02D53C00F2EF6E3FF2EF02D4EC00F2EE8
S1130930FAE2FF2EF02D49C0163149F018F41531B2
S1130940D9F143C0173141F0183159F03EC00F2E90
S1130950F2E3FF2EF02D39C00F2EF3E3FF2EF02D1E
S113096034C00F2EFDE2FF2EF02D2FC0163149F0BA
S113097018F4153131F129C0173141F0183159F00B
S113098024C00F2EF0E3FF2EF02D1FC00F2EFDE329
S1130990FF2EF02D1AC00F2EFBE2FF2EF02D15C0F6
S11309A0F12C13C00F2EF7E3FF2EF02D0EC00F2EE7
S11309B0F4E3FF2EF02D09C00F2EF1E3FF2EF02DEE
S11309C004C00F2EF1E4FF2EF02D8981882309F451
S11309D06BCF1F5F183108F460CF61E0802F0E9455
S11309E0B1070F5F053108F44CCF8F2D0F90DF91C5
S11309F0CF911F910F91FF900895CF93C82F60E07E
S1130A0081E00E94B10760E082E00E94B107C4FB6C
S1130A10662760F984E00E94B107C5FB662760F988
S1130A2085E00E94B107C6FB662760F986E00E9454
S1130A30B1076C2F661F6627661F87E00E94B10707
S1130A4061E083E00E94B10789EF90E00197F1F73C
S1130A5000C0000060E083E00E94B10789EF90E0ED
S1130A600197F1F700C000006C2F617084E00E94D0
S1130A70B107C1FB662760F985E00E94B107C2FB9C
S1130A80662760F986E00E94B107C3FB662760F918
S1130A9087E00E94B10761E083E00E94B10789EF1B
S1130AA090E00197F1F700C0000060E083E00E944D
S1130AB0B10789EF90E00197F1F700C00000CF91F2
S1130AC00895CF93C82F61E081E00E94B10760E0F0
S1130AD082E00E94B107C4FB662760F984E00E94AB
S1130AE0B107C5FB662760F985E00E94B107C6FB24
S1130AF0662760F986E00E94B1076C2F661F66279F
S1130B00661F87E00E94B10761E083E00E94B1079D
S1130B1089EF90E00197F1F700C0000060E083E006
S1130B200E94B10789EF90E00197F1F700C000003F
S1130B306C2F617084E00E94B107C1FB662760F9E5
S1130B4085E00E94B107C2FB662760F986E00E9437
S1130B50B107C3FB662760F987E00E94B10761E033
S1130B6083E00E94B10789EF90E00197F1F700C09C
S1130B70000060E083E00E94B10789EF90E00197F4
S1130B80F1F700C00000CF91089560E081E00E9479
S1130B90AF0660E082E00E94AF0660E083E00E945E
S1130BA0AF0660E084E00E94AF0660E085E00E944A
S1130BB0AF0660E086E00E94AF0660E087E00E9436
S1130BC0AF0683ED90E30197F1F700C0000082E0E7
S1130BD00E94FD0489EF90E00197F1F700C0000046
S1130BE088E20E94FD0489EF90E00197F1F700C0CC
S1130BF000008CE00E94FD0489EF90E00197F1F77A
S1130C0000C0000081E00E94FD0483EF91E00197A1
S1130C10F1F700C0000086E00E94FD0489EF90E037
S1130C200197F1F700C0000008950F931F93CF932D
S1130C308C01C0E003C00E946105CF5FF801EC0F96
S1130C40F11D80818111F7CFCF911F910F910895EC
S1130C50CF92DF92EF92FF921F93CF93DF93CDB7A2
S1130C60DEB760970FB6F894DEBF0FBECDBF6B0141
S1130C707C01672B682B692B19F480E30E946105C2
S1130C8010E015C0C701B6012AE030E040E050E0B2
S1130C900E94940EE1E0F0E0EC0FFD1FE10FF11D66
S1130CA0605D60831F5FC22ED32EE42EF52EC11427
S1130CB0D104E104F10431F70DC0E12FF0E03197E4
S1130CC081E090E08C0F9D1FE80FF91F80810E9446
S1130CD0610511501111F1CF60960FB6F894DEBF83
S1130CE00FBECDBFDF91CF911F91FF90EF90DF90AA
S1130CF0CF90089581E00E94FD040895813029F485
S1130D0080E8860F0E94FD040895823021F480EC6F
S1130D10860F0E94FD0408950E94610508950F93B3
S1130D201F93CF938C01862F90E00896880F880F2D
S1130D30880F0E94FD04C0E007C0F801EC0FF11D0C
S1130D4080810E946105CF5FC830B8F3CF911F91B5
S1130D500F9108950E9479000E948D03FDCF982F72
S1130D609695969596958770953008F0F8C0613001
S1130D7031F008F4A4C0623009F451C0EFC09130DE
S1130D80C1F028F0923039F19330B9F1E7C04AB399
S1130D9021E030E0B90102C0660F771F8A95E2F7BF
S1130DA0CB018095942F98239ABB9BB389238BBB4B
S1130DB0D5C047B321E030E0B90102C0660F771F08
S1130DC08A95E2F7CB018095942F982397BB98B32B
S1130DD0892388BBC3C044B321E030E0B90102C019
S1130DE0660F771F8A95E2F7CB018095942F98239D
S1130DF094BB95B3892385BBB1C041B321E030E0F6
S1130E00B90102C0660F771F8A95E2F7CB0180957E
S1130E10942F982391BB92B3892382BB9FC09130B6
S1130E20C1F028F0923039F19330B9F197C04AB348
S1130E3021E030E0B90102C0660F771F8A95E2F71E
S1130E40CB01962F909594239ABB9BB3892B8BBB94
S1130E5085C047B321E030E0B90102C0660F771FB7
S1130E608A95E2F7CB01962F9095942397BB98B37C
S1130E70892B88BB73C044B321E030E0B90102C0C0
S1130E80660F771F8A95E2F7CB01962F90959423EE
S1130E9094BB95B3892B85BB61C041B321E030E09D
S1130EA0B90102C0660F771F8A95E2F7CB01962F2E
S1130EB09095942391BB92B3892B82BB4FC0913000
S1130EC0C1F028F0923039F19330B9F147C04BB3F7
S1130ED021E030E0B90102C0660F771F8A95E2F77E
S1130EE0CB01962F909594239BBB9AB3892B8ABBF5
S1130EF035C048B321E030E0B90102C0660F771F66
S1130F008A95E2F7CB01962F9095942398BB97B3DB
S1130F10892B87BB23C045B321E030E0B90102C06F
S1130F20660F771F8A95E2F7CB01962F909594234D
S1130F3095BB94B3892B84BB11C042B321E030E04C
S1130F40B90102C0660F771F8A95E2F7CB01962F8D
S1130F509095942392BB91B3892B81BB089582E031
S1130F600895982F9695969596958770953008F0E4
S1130F708DC0633008F08CC0613009F040C09130FE
S1130F80A1F028F09230F9F0933059F183C04BB3BB
S1130F9021E030E0B90102C0660F771F8A95E2F7BD
S1130FA0CB01842B8BBB80E0089548B321E030E073
S1130FB0B90102C0660F771F8A95E2F7CB01842B33
S1130FC088BB80E0089545B321E030E0B90102C058
S1130FD0660F771F8A95E2F7CB01842B85BB80E0EF
S1130FE0089542B321E030E0B90102C0660F771FD3
S1130FF08A95E2F7CB01842B82BB80E008956111CE
S113100044C09130A9F028F0923009F1933071F185
S113101043C04BB321E030E0B90102C0660F771F33
S11310208A95E2F7CB01809584238BBB80E00895F9
S113103048B321E030E0B90102C0660F771F8A95FA
S1131040E2F7CB018095842388BB80E0089545B303
S113105021E030E0B90102C0660F771F8A95E2F7FC
S1131060CB018095842385BB80E0089542B321E0C1
S113107030E0B90102C0660F771F8A95E2F7CB0111
S11310808095842382BB80E00895089582E00895CA
S113109083E0089580E0089580E00895982F969560
S11310A0969596958770953008F040C09130A1F0E0
S11310B028F09230F9F0933059F13AC029B330E076
S11310C0A90102C0559547958A95E2F7CA01817036
S11310D0FB01808380E0089526B330E0A90102C0BB
S11310E0559547958A95E2F7CA018170FB01808383
S11310F080E0089523B330E0A90102C055954795D7
S11311008A95E2F7CA018170FB01808380E008952B
S113111020B330E0A90102C0559547958A95E2F7BE
S1131120CA018170FB01808380E0089582E0089504
S113113080E00895813041F018F0823049F008953C
S11311408BB780648BBF08958BB780688BBF08957D
S11311508BB780628BBF0895813041F018F08230E4
S113116049F008958BB78F7B8BBF08958BB78F772A
S11311708BBF08958BB78F7D8BBF0895813049F164
S113118020F0823009F449C00895613069F028F0F4
S1131190623089F06330B1F0089585B78E7F85BFE2
S11311A085B78D7F85BF089585B7816085BF85B775
S11311B08D7F85BF089585B78E7F85BF85B7826093
S11311C085BF089585B7816085BF85B7826085BF77
S11311D00895613069F028F0623089F06330B1F02D
S11311E0089585B78B7F85BF85B7877F85BF0895B1
S11311F085B7846085BF85B7877F85BF089585B728
S11312008B7F85BF85B7886085BF089585B7846067
S113121085BF85B7886085BF0895623019F0633053
S113122029F0089584B78F7B84BF089584B78064C0
S113123084BF0895882319F0823051F405C0709357
S1131240410360934003089570933F0360933E030A
S113125008951F920F920FB60F9211242F933F936C
S11312604F935F936F937F938F939F93AF93BF93AA
S1131270EF93FF93E0914003F0914103309709F01D
S11312800995FF91EF91BF91AF919F918F917F91BC
S11312906F915F914F913F912F910F900FBE0F90DF
S11312A01F9018951F920F920FB60F9211248F93CF
S11312B081E080933D038F910F900FBE0F901F909C
S11312C018951F920F920FB60F9211242F933F93EC
S11312D04F935F936F937F938F939F93AF93BF933A
S11312E0EF93FF93E0913E03F0913F03309709F0B1
S11312F00995FF91EF91BF91AF919F918F917F914C
S11313006F915F914F913F912F910F900FBE0F906E
S11313101F901895CF93C82F62E08DE00E94AF060E
S113132062E08FE00E94AF0662E08CE00E94AF06AC
S113133060E08EE00E94AF0661E08CE00E94B1079D
S11313408DB180648DB98C2F90E08730910508F0C1
S11313504AC0FC01E65DFF4F0C94B60E8DB18E7F42
S11313608DB98DB18D7F8DB98EB181608EB93BC041
S11313708DB18E7F8DB98DB18D7F8DB98EB18E7FFC
S11313808EB931C08DB181608DB98DB18D7F8DB92C
S11313908EB181608EB927C08DB181608DB98DB158
S11313A08D7F8DB98EB18E7F8EB91DC08DB18E7F2C
S11313B08DB98DB182608DB98EB181608EB913C043
S11313C08DB18E7F8DB98DB182608DB98EB18E7FD6
S11313D08EB909C08DB181608DB98DB182608DB92E
S11313E08EB18E7F8EB9CF910895FC019EB1892F65
S11313F0881F8827881F19F08FB1808381E00895A2
S11314008130F1F028F0823099F0833049F020C027
S113141083B78F7B83BF83B7877F83BF84E00895BF
S113142083B7806483BF83B7877F83BF84E00895D5
S113143083B78F7B83BF83B7886083BF84E00895BD
S113144083B7806483BF83B7886083BF84E00895D3
S113145081E00895823009F128F4882341F0813035
S113146089F03CC0853021F1863069F137C083B7FB
S1131470816083BF83B78D7F83BF83B78B7F83BF37
S113148084E0089583B7826083BF83B78E7F83BF70
S113149083B78B7F83BF84E0089583B7816083BF64
S11314A083B7826083BF83B78B7F83BF84E0089553
S11314B083B7846083BF83B78D7F83BF83B78E7FF9
S11314C083BF84E0089583B7816083BF83B78D7F32
S11314D083BF83B7846083BF84E0089580E0089568
S11314E0CF92DF92EF92FF926B017C0120E030E01B
S11314F040E853E40E94890C882394F420E030E00F
S1131500A901C701B6010E94220E88235CF0C7011D
S1131510B6010E94720C0E94000D62BF84E003C0F9
S113152083E001C083E0FF90EF90DF90CF900895B7
S11315308F929F92AF92BF92CF92DF92EF92FF92DF
S11315404B015C0120E030E0A9010E94220E181634
S113155094F01EC008B600FEFDCF88B7816088BF36
S113156020E030E040E85FE3C701B6010E94060CCA
S11315706B017C0103C0C12CD12C7601A50194011F
S1131580C701B6010E94890C882324F384E02AC091
S113159020E030E0A901C501B4010E94890C1816AD
S11315A09CF482E01FC008B600FEFDCF88B78160BE
S11315B088BF20E030E040E85FE3C701B6010E9445
S11315C0060C6B017C0103C0C12CD12C760120E0F8
S11315D030E040E85FE3C701B6010E94890C88232C
S11315E014F384E0FF90EF90DF90CF90BF90AF9022
S11315F09F908F90089520E030E04AE754E40E94E1
S11316008E0C2DEB37E346E859E30E948E0C0E94C2
S1131610720C60934603709347038093480390933E
S1131620490380E00E94000A60E070E0CB010E9460
S1131630700A80E00E942A0A609146037091470371
S113164080914803909149030E94980A089581303B
S1131650F1F028F0823099F0833049F020C085B54C
S11316608F7B85BD85B5877F85BD84E0089585B56D
S1131670806485BD85B5877F85BD84E0089585B583
S11316808F7B85BD85B5886085BD84E0089585B56B
S1131690806485BD85B5886085BD84E0089581E05A
S11316A0089584BD84E0089590E08730910508F0A2
S11316B052C0FC01EF5CFF4F0C94B60E85B58160FF
S11316C085BD85B58D7F85BD85B58B7F85BD84E062
S11316D0089585B5826085BD85B58E7F85BD85B548
S11316E08B7F85BD84E0089585B5816085BD85B512
S11316F0826085BD85B58B7F85BD84E0089585B501
S1131700846085BD85B58D7F85BD85B58E7F85BD9E
S113171084E0089585B5816085BD85B58D7F85BDDF
S113172085B5846085BD84E0089585B5846085BDF4
S113173085B58E7F85BD85B5826085BD84E00895BD
S113174085B5816085BD85B5826085BD85B58460BC
S113175085BD84E0089580E00895789489B7806415
S113176089BF80E00E94270B80E00E94510B80E03B
S11317700E94540B08951F920F920FB60F921124DA
S11317802F938F939F93AF93BF9380914B038823A1
S113179031F18091420390914303A0914403B091AD
S11317A0450385382EE19207A105B1057CF4019625
S11317B0A11DB11D8093420390934303A09344035E
S11317C0B093450382E080934A0315C085389E4157
S11317D0A105B10584F081E080934A030CC0109206
S11317E04A0310924203109243031092440310924E
S11317F0450310924B03BF91AF919F918F912F910D
S11318000F900FBE0F901F9018955058BB27AA2712
S11318100E941D0C0C94D00D0E94C20D38F00E9441
S1131820C90D20F039F49F3F19F426F40C94BF0D30
S11318300EF4E095E7FB0C94900DE92F0E94E10D66
S113184058F3BA17620773078407950720F079F4F1
S1131850A6F50C941B0E0EF4E0950B2EBA2FA02DBA
S11318600B01B90190010C01CA01A0011124FF2749
S1131870591B99F0593F50F4503E68F11A16F04044
S1131880A22F232F342F4427585FF3CF4695379543
S11318902795A795F0405395C9F77EF41F16BA0B08
S11318A0620B730B840BBAF09150A1F0FF0FBB1FB6
S11318B0661F771F881FC2F70EC0BA0F621F731FFF
S11318C0841F48F4879577956795B795F7959E3F5C
S11318D008F0B0CF9395880F08F09927EE0F9795ED
S11318E0879508950E94030E90F09F3748F4911154
S11318F016F40C941C0E60E070E080E89FE30895F9
S113190026F01B16611D711D811D0C94960D0C94FF
S1131910B10D0E946C0D08F481E008950E94A20CA0
S11319200C94D00D0E94C90D58F00E94C20D40F0D5
S113193029F45F3F29F00C94900D51110C941C0E66
S11319400C94BF0D0E94E10D68F39923B1F3552364
S113195091F3951B550BBB27AA27621773078407BE
S113196038F09F5F5F4F220F331F441FAA1FA9F354
S113197035D00E2E3AF0E0E832D091505040E69542
S1131980001CCAF72BD0FE2F29D0660F771F881FA3
S1131990BB1F261737074807AB07B0E809F0BB0B96
S11319A0802DBF01FF2793585F4F3AF09E3F5105AA
S11319B078F00C94900D0C941C0E5F3FE4F3983E69
S11319C0D4F3869577956795B795F7959F5FC9F793
S11319D0880F911D9695879597F90895E1E0660F14
S11319E0771F881FBB1F621773078407BA0720F08D
S11319F0621B730B840BBA0BEE1F88F7E0950895F6
S1131A000E94E90D88F09F5798F0B92F9927B75194
S1131A10B0F0E1F0660F771F881F991F1AF0BA958E
S1131A20C9F714C0B13091F00E941B0EB1E00895C3
S1131A300C941B0E672F782F8827B85F39F0B93FB5
S1131A40CCF3869577956795B395D9F73EF4909541
S1131A508095709561957F4F8F4F9F4F0895E894BF
S1131A6009C097FB3EF490958095709561957F4FE2
S1131A708F4F9F4F9923A9F0F92F96E9BB27939590
S1131A80F695879577956795B795F111F8CFFAF4A0
S1131A90BB0F11F460FF1BC06F5F7F4F8F4F9F4FD1
S1131AA016C0882311F096E911C0772321F09EE82F
S1131AB0872F762F05C0662371F096E8862F70E095
S1131AC060E02AF09A95660F771F881FDAF7880F6F
S1131AD09695879597F90895990F0008550FAA0BC5
S1131AE0E0E8FEEF16161706E807F907C0F012162D
S1131AF01306E407F50798F0621B730B840B950B30
S1131B0039F40A2661F0232B242B252B21F4089584
S1131B100A2609F4A140A6958FEF811D811D089521
S1131B2097F99F6780E870E060E00895882371F476
S1131B30772321F09850872B762F07C0662311F462
S1131B4099270DC09051862B70E060E02AF09A9599
S1131B50660F771F881FDAF7880F9695879597F990
S1131B6008959F3F31F0915020F4879577956795BC
S1131B70B795880F911D9695879597F908959FEFCE
S1131B8080EC089500240A94161617061806090610
S1131B90089500240A9412161306140605060895DF
S1131BA0092E0394000C11F4882352F0BB0F40F467
S1131BB0BF2B11F460FF04C06F5F7F4F8F4F9F4FA7
S1131BC0089557FD9058440F551F59F05F3F71F029
S1131BD04795880F97FB991F61F09F3F79F0879590
S1131BE00895121613061406551FF2CF4695F1DF19
S1131BF008C0161617061806991FF1CF86957105A9
S1131C006105089408950E94E90DA0F0BEE7B91794
S1131C1088F4BB279F3860F41616B11D672F782F00
S1131C208827985FF7CF869577956795B11D93952B
S1131C309639C8F30895E894BB2766277727CB0124
S1131C4097F908950E946C0D08F48FEF08950E948F
S1131C503A0E0C94D00D0E94C20D38F00E94C90DAA
S1131C6020F0952311F00C94900D0C94BF0D1124C9
S1131C700C941C0E0E94E10D70F3959FC1F3950F17
S1131C8050E0551F629FF001729FBB27F00DB11DFC
S1131C90639FAA27F00DB11DAA1F649F6627B00D8C
S1131CA0A11D661F829F2227B00DA11D621F739F75
S1131CB0B00DA11D621F839FA00D611D221F749F83
S1131CC03327A00D611D231F849F600D211D822FCA
S1131CD0762F6A2F11249F5750409AF0F1F08823F1
S1131CE04AF0EE0FFF1FBB1F661F771F881F91501E
S1131CF05040A9F79E3F510580F00C94900D0C9430
S1131D001C0E5F3FE4F3983ED4F386957795679570
S1131D10B795F795E7959F5FC1F7FE2B880F911D47
S1131D209695879597F90895A1E21A2EAA1BBB1BD5
S1131D30FD010DC0AA1FBB1FEE1FFF1FA217B30793
S1131D40E407F50720F0A21BB30BE40BF50B661FA9
S1131D50771F881F991F1A9469F76095709580956D
S1131D6090959B01AC01BD01CF010895EE0FFF1FBB
S1131D700590F491E02D0994662777270C94C00E02
S1131D80A0E0B0E0E6ECFEE00C944310EC016B0143
S1131D906115710519F0FB01918380837E01FFEFCA
S1131DA0EF1AFF0A0881802F90E00E940E10892B01
S1131DB011F0E701F3CF0D3239F47E0182E0E80E31
S1131DC0F11C098111E008C00B3229F47E0192E074
S1131DD0E90EF11C098110E0E701219743E050E08E
S1131DE068E770E0CE010E941710892BC1F4239696
S1131DF045E050E063E770E0CE010E941710892BA4
S1131E0009F42596C114D10419F0F601D183C083D5
S1131E101111F6C060E070E080E89FE7FAC043E08B
S1131E2050E060E770E0CE010E941710892B59F44E
S1131E30C114D10409F4E9C0F2E0EF0EF11CF6017B
S1131E40F182E082E2C020E030E0A901C0E0D0E00D
S1131E50F70180EDA82EA00E89E08A1530F1912FAC
S1131E609260B92E812F887012FF04C0811124C0A2
S1131E70219622C081112197A5E0B0E00E94321082
S1131E80DC01CB01880F991FAA1FBB1F9C01AD0168
S1131E902A0D311D411D511D283989E9380748078C
S1131EA089E1580748F0166006C09EEFA9120AC0DF
S1131EB013FD40C01860B12E8FEFE81AF80A0081B4
S1131EC01B2DC6CF802F8F7D8534A1F580818D3267
S1131ED011F4106106C08B3221F0319661E070E09C
S1131EE004C08181329662E070E080538A3018F039
S1131EF0E61BF70B1FC060E070E060389CE07907D8
S1131F005CF4DB01AA0FBB1FAA0FBB1F6A0F7B1F68
S1131F10660F771F680F711D3196DF0111978C9141
S1131F2080538A3050F314FF03C071956195710991
S1131F30C60FD71F11FF08C0C114D10429F0CF0167
S1131F400197F60191838083CA01B9010E942F0D84
S1131F50212F2370233019F04B015C0106C04B0183
S1131F605C01B7FAB094B7F8B09420E030E0A9016E
S1131F70C501B4010E94890C882309F43EC0D7FF2F
S1131F8006C0D195C195D1090FE810E002C007EA57
S1131F9010E06801F8E1CF1AD10890E2E92EF12CA3
S1131FA0CE15DF0574F0F8012591359145915491D2
S1131FB0C501B4010E94270E4B015C01CE19DF0953
S1131FC0EFCF04501109F594E7940C151D0541F762
S1131FD08A2D880F8B2D881F8F3F49F020E030E039
S1131FE0A901C501B4010E94890C811106C082E2D5
S1131FF090E09093510380935003C501B40109C04C
S113200060E070E080E89FEF04C060E070E080EC86
S11320109FE7CDB7DEB7ECE00C945F1091110C9400
S11320202F10803219F089508550C8F70895FB01AC
S1132030DC014150504088F08D9181341CF08B3587
S11320400CF4805E659161341CF06B350CF4605EB9
S1132050861B611171F3990B0895881BFCCF992796
S1132060882708950E947410A59F900DB49F900D29
S1132070A49F800D911D112408952F923F924F9299
S11320805F926F927F928F929F92AF92BF92CF9204
S1132090DF92EF92FF920F931F93CF93DF93CDB70D
S11320A0DEB7CA1BDB0B0FB6F894DEBF0FBECDBF85
S11320B009942A88398848885F846E847D848C8456
S11320C09B84AA84B984C884DF80EE80FD800C815F
S11320D01B81AA81B981CE0FD11D0FB6F894DEBF42
S11320E00FBECDBFED010895A29FB001B39FC00103
S11320F0A39F700D811D1124911DB29F700D811D30
S10D21001124911D0895F894FFCFF7
S113210A040E0E0E1F00040000409C453132333485
S113211A000101750000B888470034373835323178
S113212A343536393233363534390000409C45016A
S113213A313937353634383735323133363935343F
S113214A000000FA44003132333435363738393135
S113215A3233343536370000401C460033333333C8
S113216A3333333333343434343434340000409C1A
S113217A4500353535353535353535383838383817
S113218A38380000000000000000000000000000D1
S113219A0000000000000000000000000000000031
S11321AA0000000000000000000000000000000021
S11321BA0000000000000000000000000000000011
S11321CA0000000000000000000000000000000001
S11321DA00000000000000000000000000000000F1
S11321EA00000000000000000000000000000000E1
S11321FA00000000000000000000000000000000D1
S113220A00000000000000000000000000000000C0
S113221A00000000000000000000000000000000B0
S113222A00000000000000000000000000000000A0
S113223A0000000000000000000000000000000090
S113224A0000000000000000000000000000000080
S113225A0000000000000000000000000000000070
S113226A0000000000000000000000000000000060
S113227A0000000000000000000000000000000050
S113228A0000000000000000000000000000000040
S113229A0000000000000000000000000000000030
S11322AA0000000000000000000000000000000020
S11322BA0000000000000000000000000000000010
S11322CA0000000000000000000000000020574544
S11322DA4C434F4D4520544F2041544D2000494E04
S11322EA5345525420594F555220434152440045B4
S11322FA6E74657220596F75722050494E002A0017
S113230A54525920414741494E2000545249414CA4
S113231A53203A0020424C4F434B45442000456E1B
S113232A74657220416D6F756E7400303030302ED2
S113233A303000494E53554646494349454E542088
S113234A002046554E44202121004D4158204C4935
S113235A4D49540020495320455843454544454472
S113236A20005448495320495300412053544F4CA8
S113237A454E2043415244202121004120465241E6
S113238A5544204341524420212100415050524F88
S113239A56454420005452414E53414354494F4EEA
S11323AA200052454D41494E494E470042414C4155
S11323BA4E4345203A00454A454354494E47200076
S10923CA434152442000CF
S9030000FC
