:100000000C946B000C9488000C9488000C9488006D
:100010000C9488000C9427050C9488000C9488009C
:100020000C9488000C9488000C9488000C94880030
:100030000C9488000C9488000C9488000C94880020
:100040000C9488000C9488000C9488000C94880010
:100050000C94880007634236B79BD8A71A396856B4
:1000600018AEBAAB558C1D3CB7CC5763BD6DEDFDDA
:10007000753EF6177231BF000000803F0800000097
:10008000BE922449123EABAAAA2ABECDCCCC4C3E8D
:1000900000000080BEABAAAAAA3E00000000BF007C
:1000A0000000803F0000000000084178D3BB438778
:1000B000D1133D190E3CC3BD4282AD2B3E68EC828C
:1000C00076BED98FE1A93E4C80EFFFBE01C4FF7F11
:1000D0003F000000000011241FBECFE5D8E0DEBFC6
:1000E000CDBF10E0A0E6B0E0E0E1F4E102C0059091
:1000F0000D92AC3BB107D9F720E0ACEBB0E001C00A
:100100001D92A13DB207E1F70E9483020C94060AFA
:100110000C940000CF93DF93EC010E9464058111E1
:100120000EC061E080EA0E947705863041F461E00C
:10013000CE010E94D8058D3011F40E94C805DF91D0
:10014000CF910895CF92DF92EF92FF920F931F937A
:10015000CF93DF937C01EC018C01005F1F4F6E0198
:10016000CE010E948A002196F601608170E080E055
:1001700090E00E942102C017D10789F760E082E079
:100180000E947502F4E1EF0EF11CE801C8010E9423
:100190008A000F5F1F4F688170E080E090E00E944E
:1001A00021020E151F0589F7DF91CF911F910F9145
:1001B000FF90EF90DF90CF900895EF92FF920F9312
:1001C0001F93CF938C017B01C42F0E946405811182
:1001D00018C060E080EA0E947705823091F4C70180
:1001E0000E94AE05893069F4CC2359F0F12CC80186
:1001F0008F0D911D0E94AE05893009F4F394FC1611
:10020000B0F30E94C805CF911F910F91FF90EF901E
:100210000895CF93C82F60E08AE10E948A0460E0CD
:100220008BE10E948A04C4FB662760F984E10E9486
:100230008A04C5FB662760F985E10E948A04C6FB33
:10024000662760F986E10E948A046C2F661F662784
:10025000661F87E10E948A0461E08CE10E948A04A3
:1002600089EF90E00197F1F700C0000060E08CE1B9
:100270000E948A0489EF90E00197F1F700C0000026
:100280006C2F617084E10E948A04C1FB662760F9CB
:1002900085E10E948A04C2FB662760F986E10E941C
:1002A0008A04C3FB662760F987E10E948A0461E043
:1002B0008CE10E948A0489EF90E00197F1F700C079
:1002C000000060E08CE10E948A0489EF90E00197D1
:1002D000F1F700C00000CF910895CF93C82F61E0DF
:1002E0008AE10E948A0460E08BE10E948A04C4FBD8
:1002F000662760F984E10E948A04C5FB662760F9DD
:1003000085E10E948A04C6FB662760F986E10E94A7
:100310008A046C2F661F6627661F87E10E948A0485
:1003200061E08CE10E948A0489EF90E00197F1F787
:1003300000C0000060E08CE10E948A0489EF90E038
:100340000197F1F700C000006C2F617084E10E94FA
:100350008A04C1FB662760F985E10E948A04C2FB1A
:10036000662760F986E10E948A04C3FB662760F96C
:1003700087E10E948A0461E08CE10E948A0489EF8F
:1003800090E00197F1F700C0000060E08CE10E946E
:100390008A0489EF90E00197F1F700C00000CF9147
:1003A000089560E084E00E94880360E085E00E9498
:1003B000880360E086E00E94880360E087E00E9496
:1003C000880360E08AE10E94880360E08BE10E947C
:1003D000880360E08CE10E94880383ED90E301973D
:1003E000F1F700C0000082E00E94090189EF90E06F
:1003F0000197F1F700C0000088E20E94090189EF2F
:1004000090E00197F1F700C000008CE00E94090124
:1004100089EF90E00197F1F700C0000081E00E94B1
:10042000090183EF91E00197F1F700C0000086E039
:100430000E94090189EF90E00197F1F700C00000E8
:1004400008958F929F92AF92BF92EF92FF921F9367
:10045000CF93DF93CDB7DEB760970FB6F894DEBFCA
:100460000FBECDBF611571058105910521F480E3B3
:100470000E946D012AC010E00F2EFAE08F2E912C01
:10048000A12CB12CF02DEE24E394F12CEC0EFD1EEA
:10049000E10EF11CA50194010E945606605DF70172
:1004A00060831F5F622F732F842F952F6115710555
:1004B0008105910541F7112341F0FE01E10FF11D86
:1004C00080810E946D011150C1F760960FB6F894BB
:1004D000DEBF0FBECDBFDF91CF911F91FF90EF9098
:1004E000BF90AF909F908F900895813029F480E85D
:1004F000860F0E9409010895823021F480EC860F56
:100500000E94090108953F924F925F926F927F92ED
:100510008F929F92AF92BF92CF92DF92EF92FF9213
:100520000F931F93CF93DF93CDB7DEB7A0970FB68E
:10053000F894DEBF0FBECDBF60E088E00E94880364
:1005400061E088E00E948A040E94D1010E94FE05B9
:1005500082E00E9431058E010F5F1F4F80E1F8019C
:1005600011928A95E9F781E690E00E940F06C80192
:100570000E9425068C018AE090E00E940706F8019F
:100580009801205F3F4F8081805381932E173F0752
:10059000D1F740E160ED70E0C8010E94DD0087EA1C
:1005A00091E60197F1F700C0000010E30F2EF7E08D
:1005B0005F2EF02D6E0198E1C90ED11C3E01E1E1E4
:1005C0006E0E711C4E01FCE18F0E911CF601252D63
:1005D00011922A95E9F7F301252D11922A95E9F751
:1005E00088E790E00E940F06C6010E94250698A3A6
:1005F0008F8F5C018EE890E00E940F06C3010E947D
:100600002506382E492E8C8D811116C08B8D88239E
:1006100099F07E0188E1E80EF11C11E3F701819168
:100620007F0180538A3028F08AE090E00E9407061C
:1006300010E38E149F0491F7A32DB42DEF8DF8A134
:100640009F012C5F3F4F9D918191981310E3E2171A
:10065000F307C9F7103361F486EA90E00E940F06B1
:10066000B5CF8081805381932E173F07D1F70AC001
:1006700081EB90E00E940F06EF8DF8A195012C5FB1
:100680003F4FEFCF44E060E670E0C5010E94DD001F
:1006900087EA91E60197F1F700C000009FE9E6E8DC
:1006A000F1E09150E040F040E1F700C0000060E070
:1006B00080E10E94880360E081E10E94880360E09D
:1006C00080E10E948A0460E081E10E948A0482E065
:1006D0000E9431058CEB90E00E94A20080E090E047
:1006E000A0960FB6F894DEBF0FBECDBFDF91CF91BD
:1006F0001F910F91FF90EF90DF90CF90BF90AF9040
:100700009F908F907F906F905F904F903F90089553
:10071000982F969596959695953008F0F9C0877024
:10072000613031F008F4A4C0623009F451C0EFC068
:100730009130C1F028F0923039F19330B9F1E7C02F
:100740004AB321E030E0B90102C0660F771F8A95F5
:10075000E2F7CB018095942F98239ABB9BB3892312
:100760008BBBD5C047B321E030E0B90102C0660FB2
:10077000771F8A95E2F7CB018095942F982397BB3A
:1007800098B3892388BBC3C044B321E030E0B901EA
:1007900002C0660F771F8A95E2F7CB018095942FF0
:1007A000982394BB95B3892385BBB1C041B321E0A5
:1007B00030E0B90102C0660F771F8A95E2F7CB01DE
:1007C0008095942F982391BB92B3892382BB9FC0BD
:1007D0009130C1F028F0923039F19330B9F197C0DF
:1007E0004AB321E030E0B90102C0660F771F8A9555
:1007F000E2F7CB01962F909594239ABB9BB3892B5C
:100800008BBB85C047B321E030E0B90102C0660F61
:10081000771F8A95E2F7CB01962F9095942397BB8B
:1008200098B3892B88BB73C044B321E030E0B90191
:1008300002C0660F771F8A95E2F7CB01962F90953D
:10084000942394BB95B3892B85BB61C041B321E050
:1008500030E0B90102C0660F771F8A95E2F7CB013D
:10086000962F9095942391BB92B3892B82BB4FC056
:100870009130C1F028F0923039F19330B9F147C08E
:100880004BB321E030E0B90102C0660F771F8A95B3
:10089000E2F7CB01962F909594239BBB9AB3892BBB
:1008A0008ABB35C048B321E030E0B90102C0660F11
:1008B000771F8A95E2F7CB01962F9095942398BBEA
:1008C00097B3892B87BB23C045B321E030E0B90142
:1008D00002C0660F771F8A95E2F7CB01962F90959D
:1008E000942395BB94B3892B84BB11C042B321E000
:1008F00030E0B90102C0660F771F8A95E2F7CB019D
:10090000962F9095942392BB91B3892B81BB089528
:1009100082E00895982F969596959695953008F0D3
:100920008EC0633008F08DC08770613009F040C020
:100930009130A1F028F09230F9F0933059F183C052
:100940004BB321E030E0B90102C0660F771F8A95F2
:10095000E2F7CB01842B8BBB80E0089548B321E004
:1009600030E0B90102C0660F771F8A95E2F7CB012C
:10097000842B88BB80E0089545B321E030E0B901C5
:1009800002C0660F771F8A95E2F7CB01842B85BBE7
:1009900080E0089542B321E030E0B90102C0660F63
:1009A000771F8A95E2F7CB01842B82BB80E0089504
:1009B000611144C09130A9F028F0923009F19330D0
:1009C00071F143C04BB321E030E0B90102C0660FC2
:1009D000771F8A95E2F7CB01809584238BBB80E05B
:1009E000089548B321E030E0B90102C0660F771FD7
:1009F0008A95E2F7CB018095842388BB80E0089537
:100A000045B321E030E0B90102C0660F771F8A9537
:100A1000E2F7CB018095842385BB80E0089542B343
:100A200021E030E0B90102C0660F771F8A95E2F736
:100A3000CB018095842382BB80E00895089582E0F5
:100A4000089583E0089580E0089580E008951F925E
:100A50000F920FB60F9211240F900FBE0F901F90A0
:100A6000189511B8813049F028F0823049F0833070
:100A700051F00BC00898099808C0089A099805C059
:100A80000898099A02C0089A099A61B1637070E0E7
:100A900080E090E00E9488079B01AC0160E070E07C
:100AA00080E890E40E9422089B01AC010E94790634
:100AB0009B01AC0160E070E080E89FE40E94E506E5
:100AC0000E94570760B9089586B7806886BF86B7C9
:100AD000806286BF86B7846086BF06B607FEFDCFFC
:100AE00091B1987F81E0983009F480E00895662301
:100AF00019F06130A9F029C083B986B7806886BF34
:100B000086B7846086BF06B607FEFDCF81B1887FB9
:100B10008831E1F081B1887F8032D1F085E008959D
:100B20008F5F83B986B7806886BF86B7846086BFCB
:100B300006B607FEFDCF81B1887F803459F081B1C0
:100B4000887F883449F088E00895089582E0089508
:100B500083E0089586E0089587E00895FC01808190
:100B600083B986B7806886BF86B7846086BF06B6BD
:100B700007FEFDCF81B1887F883231F081B1887F57
:100B8000803321F08BE0089589E008958AE008958C
:100B900086B78F7D86BF86B7806886BF86B780613F
:100BA00086BF86B7846086BF06B604FCFDCF089575
:100BB000FC01662319F0613029F007C086B7806414
:100BC00086BF03C086B78F7B86BF96B7906896BFF7
:100BD00096B7946096BF06B607FEFDCF83B18083BB
:100BE00081B1887F803531F081B1887F883521F0EF
:100BF0008EE008958CE008958DE0089510BC83E3A5
:100C000089B98AB188618AB986E880BD08955D9BFB
:100C1000FECF8CB908955F9BFECF8CB108950F93E2
:100C20001F93CF93FC018081882359F08F01C0E08E
:100C30000E940706CF5FF801EC0FF11D8081811142
:100C4000F7CFCF911F910F9108950F931F93CF93DB
:100C50008C01C0E001C0C92F0E940B06F801EC0F07
:100C6000F11D808391E09C0F8A3011F08D3099F74F
:100C7000CE5FF801EC0FF11D1082F801808188230E
:100C800049F0319680E090E00196AC01219121116C
:100C9000FBCF02C040E050E0400F511FFA013197F6
:100CA0001082C801CF911F910F910895A1E21A2ED1
:100CB000AA1BBB1BFD010DC0AA1FBB1FEE1FFF1F00
:100CC000A217B307E407F50720F0A21BB30BE40B50
:100CD000F50B661F771F881F991F1A9469F7609597
:100CE0007095809590959B01AC01BD01CF01089551
:100CF0005058BB27AA270E9490060C94E8070E9430
:100D0000DA0738F00E94E10720F039F49F3F19F428
:100D100026F40C94D7070EF4E095E7FB0C94C30778
:100D2000E92F0E94F90758F3BA176207730784077F
:100D3000950720F079F4A6F50C941B080EF4E095C5
:100D40000B2EBA2FA02D0B01B90190010C01CA0185
:100D5000A0011124FF27591B99F0593F50F4503E30
:100D600068F11A16F040A22F232F342F4427585F22
:100D7000F3CF469537952795A795F0405395C9F73A
:100D80007EF41F16BA0B620B730B840BBAF09150F2
:100D9000A1F0FF0FBB1F661F771F881FC2F70EC091
:100DA000BA0F621F731F841F48F487957795679564
:100DB000B795F7959E3F08F0B0CF9395880F08F050
:100DC0009927EE0F9795879508950E94F9060C9440
:100DD000E8070E94E10758F00E94DA0740F029F482
:100DE0005F3F29F00C94C30751110C941C080C941C
:100DF000D7070E94F90768F39923B1F3552391F3BC
:100E0000951B550BBB27AA2762177307840738F079
:100E10009F5F5F4F220F331F441FAA1FA9F335D0D6
:100E20000E2E3AF0E0E832D091505040E695001C8A
:100E3000CAF72BD0FE2F29D0660F771F881FBB1F44
:100E4000261737074807AB07B0E809F0BB0B802D22
:100E5000BF01FF2793585F4F3AF09E3F510578F04E
:100E60000C94C3070C941C085F3FE4F3983ED4F342
:100E7000869577956795B795F7959F5FC9F7880F22
:100E8000911D9695879597F90895E1E0660F771F74
:100E9000881FBB1F621773078407BA0720F0621B05
:100EA000730B840BBA0BEE1F88F7E09508950E9430
:100EB000010888F09F5798F0B92F9927B751B0F0E3
:100EC000E1F0660F771F881F991F1AF0BA95C9F7CE
:100ED00014C0B13091F00E941B08B1E008950C9449
:100EE0001B08672F782F8827B85F39F0B93FCCF3FC
:100EF000869577956795B395D9F73EF4909580954B
:100F0000709561957F4F8F4F9F4F0895E89409C06A
:100F100097FB3EF490958095709561957F4F8F4F2C
:100F20009F4F9923A9F0F92F96E9BB279395F69542
:100F3000879577956795B795F111F8CFFAF4BB0FC0
:100F400011F460FF1BC06F5F7F4F8F4F9F4F16C024
:100F5000882311F096E911C0772321F09EE8872FAE
:100F6000762F05C0662371F096E8862F70E060E06A
:100F70002AF09A95660F771F881FDAF7880F9695E3
:100F8000879597F9089597F99F6780E870E060E08A
:100F900008959F3F31F0915020F48795779567959C
:100FA000B795880F911D9695879597F908959FEFAE
:100FB00080EC089500240A941616170618060906F0
:100FC000089500240A9412161306140605060895BF
:100FD000092E0394000C11F4882352F0BB0F40F447
:100FE000BF2B11F460FF04C06F5F7F4F8F4F9F4F87
:100FF000089557FD9058440F551F59F05F3F71F009
:101000004795880F97FB991F61F09F3F79F087956F
:101010000895121613061406551FF2CF4695F1DFF8
:1010200008C0161617061806991FF1CF8695710588
:10103000610508940895E894BB2766277727CB01BC
:1010400097F90895FA01EE0FFF1F3096210531053B
:10105000A1F16115710561F48038BFE39B0749F187
:1010600068949038810561F08038BFEF9B0741F0AC
:1010700099234AF5FF3FE1053105210519F1E8946F
:101080000894E795D901AA2329F4AB2FBE2FF85F66
:10109000D0F310C0FF5F70F4A695E0F7F73950F079
:1010A00019F0FF3A38F49F779F930DD00F9007FC0B
:1010B0009058089546F00C94D70760E070E080E8FF
:1010C0009FE308954FE79F775F934F933F932F934D
:1010D0000E941D092F913F914F915F910E949909A4
:1010E0000C947A0829F416F00C94C3070C941B088E
:1010F0000C94D7070E940108A8F39638A0F707F8C8
:101100000F92E8942BE33AEA48EB5FE70E94AF09BD
:101110000F920F920F924DB75EB70F920E94650922
:10112000E4E5F0E00E94AC084F915F91EF91FF91F0
:10113000E595EE1FFF1F49F0FE57E0684427EE0FCC
:10114000441FFA95E1F74195550B0E94DF080F9077
:1011500007FE0C94D3080895DF93CF931F930F934A
:10116000FF92EF92DF927B018C01689406C0DA2E29
:10117000EF010E94AC09FE01E894A59125913591FB
:1011800045915591A6F3EF010E949006FE0197014B
:10119000A801DA9469F7DF90EF90FF900F911F910B
:1011A000CF91DF9108959B01AC0160E070E080E891
:1011B0009FE30C94E5060C94C3070C94C9070E94A6
:1011C0000108D8F39923C9F3940F511DA3F391504B
:1011D000504094F059F0882332F0660F771F881F33
:1011E00091505040C1F79E3F51052CF7880F911D3B
:1011F0009695879597F908955F3FACF0983E9CF0DF
:10120000BB27869577956795B79508F4B160939558
:10121000C1F7BB0F58F711F460FFE8CF6F5F7F4F46
:101220008F4F9F4FE3CF0C941C0816F00C94C90706
:101230000C94D70768940C94C3070E940108A8F384
:101240009923C1F3AEF3DF93CF931F930F93FF92D4
:10125000C92FDD2788232AF02197660F771F881F63
:10126000DAF720E030E040E85FEB9FE3883920F0D8
:10127000803E38F021968F770E947906ECE7F0E007
:1012800004C00E947906E9EAF0E00E94AC088B01F4
:10129000BE01EC01FB2E6F5771097595771F880B06
:1012A000990B0E94880728E132E741E35FE30E943F
:1012B000AC09AF2D9801AE01FF900F911F91CF9116
:1012C000DF910E9490060C94E807FA01DC01AA0F56
:1012D000BB1F9B01AC01BF5728F4222733274427AB
:1012E000507820C0B75190F4AB2F00244695379525
:1012F0002795011CA395D2F3002071F0220F331F14
:10130000441FB395DAF30ED00C9478066130710562
:10131000A0E88A07B94630F49B01AC01662777271D
:1013200088279078309621F020833183428353833D
:1013300008950E94AC090C94E8070E94DA0738F07F
:101340000E94E10720F0952311F00C94C3070C9440
:10135000D70711240C941C080E94F90770F3959F7D
:10136000C1F3950F50E0551F629FF001729FBB279C
:10137000F00DB11D639FAA27F00DB11DAA1F649F38
:101380006627B00DA11D661F829F2227B00DA11DEB
:10139000621F739FB00DA11D621F839FA00D611D71
:1013A000221F749F3327A00D611D231F849F600D92
:1013B000211D822F762F6A2F11249F5750409AF0BB
:1013C000F1F088234AF0EE0FFF1FBB1F661F771F47
:1013D000881F91505040A9F79E3F510580F00C9412
:1013E000C3070C941C085F3FE4F3983ED4F3869542
:1013F00077956795B795F795E7959F5FC1F7FE2BB2
:10140000880F911D9695879597F90895F894FFCFC9
:1014100010506C6561736520456E74657220436180
:1014200072642050414E3A00506C656173652045EE
:101430006E746572204E65772050494E3A00506CAC
:101440006561736520436F6E6669726D204E6577C6
:101450002050494E3A0057726F6E672050494E2017
:0C146000002066696E69736865642000F6
:00000001FF
