:100000000C9472000C948F000C948F000C948F0051
:100010000C948F000C9496040C948F000C948F0019
:100020000C948F000C948F000C948F000C948F0014
:100030000C948F000C948F000C948F000C948F0004
:100040000C948F000C948F000C948F000C948F00F4
:100050000C948F00740478047C0480048404880465
:100060008C0407634236B79BD8A71A39685618AE76
:10007000BAAB558C1D3CB7CC5763BD6DEDFD753EDD
:10008000F6177231BF000000803F08000000BE92EA
:100090002449123EABAAAA2ABECDCCCC4C3E0000CD
:1000A0000080BEABAAAAAA3E00000000BF0000006C
:1000B000803F0000000000084178D3BB4387D11384
:1000C0003D190E3CC3BD4282AD2B3E68EC8276BE2C
:1000D000D98FE1A93E4C80EFFFBE01C4FF7F3F00F6
:1000E0000000000011241FBECFE5D8E0DEBFCDBF69
:1000F00010E0A0E6B0E0E6EBF2E102C005900D9260
:10010000AC3BB107D9F720E0ACEBB0E001C01D92E9
:10011000A13DB207E1F70E94A3010C9459090C9488
:100120000000CF93DF93EC010E94D30481110EC035
:1001300061E080EA0E94E604863041F461E0CE018D
:100140000E9447058D3011F40E943705DF91CF9151
:1001500008950F931F93CF93DF93662379F0EC01FB
:100160006150062F10E00F5F1F4F080F191FCE01BF
:100170000E9491002196C017D107C9F7DF91CF9156
:100180001F910F910895EF92FF920F931F93CF93BA
:100190008C017B01C42F0E94D304811118C060E040
:1001A00080EA0E94E604823091F4C7010E941D0596
:1001B000893069F4CC2359F0F12CC8018F0D911DC1
:1001C0000E941D05893009F4F394FC16B0F30E94D7
:1001D0003705CF911F910F91FF90EF900895CF9326
:1001E000C82F60E08AE10E94B50360E08BE10E94C5
:1001F000B503C4FB662760F984E10E94B503C5FB23
:10020000662760F985E10E94B503C6FB662760F9A1
:1002100086E10E94B5036C2F661F6627661F87E183
:100220000E94B50361E08CE10E94B50389EF90E084
:100230000197F1F700C0000060E08CE10E94B50377
:1002400089EF90E00197F1F700C000006C2F61701A
:1002500084E10E94B503C1FB662760F985E10E9435
:10026000B503C2FB662760F986E10E94B503C3FBB4
:10027000662760F987E10E94B50361E08CE10E9486
:10028000B50389EF90E00197F1F700C0000060E04E
:100290008CE10E94B50389EF90E00197F1F700C06F
:1002A0000000CF91089560E084E00E94B30260E016
:1002B00085E00E94B30260E086E00E94B30260E045
:1002C00087E00E94B30260E08AE10E94B30260E02E
:1002D0008BE10E94B30260E08CE10E94B30283EDE7
:1002E00090E30197F1F700C0000082E00E94EF0068
:1002F00089EF90E00197F1F700C0000088E20E94CA
:10030000EF0089EF90E00197F1F700C000008CE06A
:100310000E94EF0089EF90E00197F1F700C0000024
:1003200081E00E94EF0083EF91E00197F1F700C0B8
:10033000000086E00E94EF0089EF90E00197F1F75E
:1003400000C0000008953F924F925F926F927F929B
:100350008F929F92AF92BF92CF92DF92EF92FF92D5
:100360000F931F93CF93DF93CDB7DEB7A1970FB64F
:10037000F894DEBF0FBECDBF83E00E94520460E060
:1003800088E00E94B30261E088E00E94B5030E9409
:1003900053010E946D0582E00E94A0048E010F5F50
:1003A0001F4F80E1F80111928A95E9F781E690E00C
:1003B0000E947E05C8010E94940599A388A38AE043
:1003C00090E00E947605F0E3FF8F0F2EF7E07F2E7E
:1003D000F02D7E0128E1E20EF11C5E0181E1A80E04
:1003E000B11C6E019CE1C90ED11CF701272D1192A1
:1003F0002A95E9F7F501272D11922A95E9F788E763
:1004000090E00E947E05C7010E9494058C01382E61
:10041000412E8EE890E00E947E05C5010E94940561
:10042000582E692E8C8D811118C08B8D8823A9F0D0
:100430004E0188E1880E911C91E39F8FF401819118
:100440004F0180538A3030F08AE090E00E947605B8
:10045000F0E3FF8FC814D90489F7A52DB62DF80154
:100460000C5F1F4F9D918191981711F020E32F8F02
:10047000E017F107B9F78F8D8033D1F486EA90E069
:100480000E947E05B2CF10E00E9491041F5F9FEF93
:10049000E0E7F2E09150E040F040E1F700C00000FA
:1004A000E12FF0E0E054FF4F80818111EDCF3AC0A1
:1004B00081EB90E00E947E0540E160ED70E088A154
:1004C00099A10E94C30087EA91E60197F1F700C065
:1004D000000060E180EC90E00E94A900E7EAF1E60C
:1004E0003197F1F700C0000044E060E670E0832D32
:1004F000942D0E94C30087EA91E60197F1F700C0AE
:10050000000064E08CEB90E00E94A90060E088E0CD
:100510000E94B50360E08CE00E94B5038091C000AA
:100520008111B1CF80E00E94910461E08CE00E94D3
:10053000B50380E090E0A1960FB6F894DEBF0FBE41
:10054000CDBFDF91CF911F910F91FF90EF90DF9082
:10055000CF90BF90AF909F908F907F906F905F9063
:100560004F903F900895982F969596959695953033
:1005700008F0F9C08770613031F008F4A4C062302F
:1005800009F451C0EFC09130C1F028F0923039F138
:100590009330B9F1E7C04AB321E030E0B90102C0BD
:1005A000660F771F8A95E2F7CB018095942F9823E9
:1005B0009ABB9BB389238BBBD5C047B321E030E006
:1005C000B90102C0660F771F8A95E2F7CB018095CB
:1005D000942F982397BB98B3892388BBC3C044B397
:1005E00021E030E0B90102C0660F771F8A95E2F77B
:1005F000CB018095942F982394BB95B3892385BB19
:10060000B1C041B321E030E0B90102C0660F771FED
:100610008A95E2F7CB018095942F982391BB92B3F2
:10062000892382BB9FC09130C1F028F0923039F10C
:100630009330B9F197C04AB321E030E0B90102C06C
:10064000660F771F8A95E2F7CB01962F909594233A
:100650009ABB9BB3892B8BBB85C047B321E030E0AD
:10066000B90102C0660F771F8A95E2F7CB01962F7A
:100670009095942397BB98B3892B88BB73C044B3E0
:1006800021E030E0B90102C0660F771F8A95E2F7DA
:10069000CB01962F9095942394BB95B3892B85BB62
:1006A00061C041B321E030E0B90102C0660F771F9D
:1006B0008A95E2F7CB01962F9095942391BB92B344
:1006C000892B82BB4FC09130C1F028F0923039F1B4
:1006D0009330B9F147C04BB321E030E0B90102C01B
:1006E000660F771F8A95E2F7CB01962F909594239A
:1006F0009BBB9AB3892B8ABB35C048B321E030E05D
:10070000B90102C0660F771F8A95E2F7CB01962FD9
:100710009095942398BB97B3892B87BB23C045B38F
:1007200021E030E0B90102C0660F771F8A95E2F739
:10073000CB01962F9095942395BB94B3892B84BBC2
:1007400011C042B321E030E0B90102C0660F771F4B
:100750008A95E2F7CB01962F9095942392BB91B3A3
:10076000892B81BB089582E00895982F96959695E0
:100770009695953008F08EC0633008F08DC0877074
:10078000613009F040C09130A1F028F09230F9F0CA
:10079000933059F183C04BB321E030E0B90102C07E
:1007A000660F771F8A95E2F7CB01842B8BBB80E025
:1007B000089548B321E030E0B90102C0660F771F09
:1007C0008A95E2F7CB01842B88BB80E0089545B37E
:1007D00021E030E0B90102C0660F771F8A95E2F789
:1007E000CB01842B85BB80E0089542B321E030E04B
:1007F000B90102C0660F771F8A95E2F7CB01842BFF
:1008000082BB80E00895611144C09130A9F028F0C6
:10081000923009F1933071F143C04BB321E030E0E5
:10082000B90102C0660F771F8A95E2F7CB01809568
:1008300084238BBB80E0089548B321E030E0B90108
:1008400002C0660F771F8A95E2F7CB01809584235B
:1008500088BB80E0089545B321E030E0B90102C0D3
:10086000660F771F8A95E2F7CB018095842385BBBD
:1008700080E0089542B321E030E0B90102C0660F84
:10088000771F8A95E2F7CB018095842382BB80E0B5
:100890000895089582E0089583E0089580E0089522
:1008A00080E00895CF93C82F60E08DE00E94B302EE
:1008B00060E08FE00E94B30260E08CE00E94B3022F
:1008C00062E08EE00E94B30261E08CE00E94B5031A
:1008D0006E9A6C9A8C2F90E08730910500F5FC01A0
:1008E000E65DFF4F0C94C50568986998709A17C02B
:1008F00068986998709813C0689A6998709A0FC040
:10090000689A699870980BC06898699A709A07C03D
:100910006898699A709803C0689A699A7098CF919C
:1009200008958FB9779BFECF8FB108951F920F92D4
:100930000FB60F9211240F900FBE0F901F901895B5
:1009400011B8813049F028F0823049F0833051F0FD
:100950000BC00898099808C0089A099805C008981B
:10096000099A02C0089A099A61B1637070E080E048
:1009700090E00E94DB069B01AC0160E070E080E843
:1009800090E40E9475079B01AC010E94CC059B017D
:10099000AC0160E070E080E89FE40E9438060E94AD
:1009A000AA0660B9089586B7806886BF86B7806258
:1009B00086BF86B7846086BF06B607FEFDCF91B1BD
:1009C000987F81E0983009F480E00895662319F05B
:1009D0006130A9F029C083B986B7806886BF86B721
:1009E000846086BF06B607FEFDCF81B1887F88315F
:1009F000E1F081B1887F8032D1F085E008958F5F8A
:100A000083B986B7806886BF86B7846086BF06B61E
:100A100007FEFDCF81B1887F803459F081B1887F96
:100A2000883449F088E00895089582E0089583E0CD
:100A3000089586E0089587E00895FC01808183B9D8
:100A400086B7806886BF86B7846086BF06B607FE15
:100A5000FDCF81B1887F883231F081B1887F8033CA
:100A600021F08BE0089589E008958AE0089586B723
:100A70008F7D86BF86B7806886BF86B7806186BF58
:100A800086B7846086BF06B604FCFDCF0895FC01DE
:100A9000662319F0613029F007C086B7806486BFED
:100AA00003C086B78F7B86BF96B7906896BF96B710
:100AB000946096BF06B607FEFDCF83B1808381B1F7
:100AC000887F803531F081B1887F883521F08EE0D4
:100AD00008958CE008958DE0089510BC83E389B9F2
:100AE0008AB188618AB986E880BD08955D9BFECF92
:100AF0008CB908955F9BFECF8CB108950F931F931F
:100B0000CF93FC018081882359F08F01C0E00E94BF
:100B10007605CF5FF801EC0FF11D80818111F7CFD1
:100B2000CF911F910F9108950F931F93CF938C0135
:100B3000C0E001C0C92F0E947A05F801EC0FF11D39
:100B4000808391E09C0F8A3011F08D3099F7CE5F51
:100B5000F801EC0FF11D1082F8018081882349F023
:100B6000319680E090E00196AC0121912111FBCFFC
:100B700002C040E050E0400F511FFA01319710824F
:100B8000C801CF911F910F910895EE0FFF1F05909F
:100B9000F491E02D09945058BB27AA270E94E30541
:100BA0000C943B070E942D0738F00E94340720F078
:100BB00039F49F3F19F426F40C942A070EF4E095BB
:100BC000E7FB0C941607E92F0E944C0758F3BA175D
:100BD000620773078407950720F079F4A6F50C9453
:100BE0006E070EF4E0950B2EBA2FA02D0B01B90164
:100BF00090010C01CA01A0011124FF27591B99F093
:100C0000593F50F4503E68F11A16F040A22F232F9E
:100C1000342F4427585FF3CF469537952795A795EE
:100C2000F0405395C9F77EF41F16BA0B620B730B95
:100C3000840BBAF09150A1F0FF0FBB1F661F771F06
:100C4000881FC2F70EC0BA0F621F731F841F48F4BB
:100C5000879577956795B795F7959E3F08F0B0CF44
:100C60009395880F08F09927EE0F9795879508952B
:100C70000E944C060C943B070E94340758F00E94D7
:100C80002D0740F029F45F3F29F00C94160751110D
:100C90000C946F070C942A070E944C0768F3992361
:100CA000B1F3552391F3951B550BBB27AA27621768
:100CB0007307840738F09F5F5F4F220F331F441F75
:100CC000AA1FA9F335D00E2E3AF0E0E832D09150A9
:100CD0005040E695001CCAF72BD0FE2F29D0660F96
:100CE000771F881FBB1F261737074807AB07B0E8D9
:100CF00009F0BB0B802DBF01FF2793585F4F3AF0DF
:100D00009E3F510578F00C9416070C946F075F3FD7
:100D1000E4F3983ED4F3869577956795B795F79564
:100D20009F5FC9F7880F911D9695879597F908954C
:100D3000E1E0660F771F881FBB1F621773078407E8
:100D4000BA0720F0621B730B840BBA0BEE1F88F7F7
:100D5000E09508950E94540788F09F5798F0B92FA6
:100D60009927B751B0F0E1F0660F771F881F991FE0
:100D70001AF0BA95C9F714C0B13091F00E946E070D
:100D8000B1E008950C946E07672F782F8827B85F1D
:100D900039F0B93FCCF3869577956795B395D9F738
:100DA0003EF490958095709561957F4F8F4F9F4F42
:100DB0000895E89409C097FB3EF49095809570954E
:100DC00061957F4F8F4F9F4F9923A9F0F92F96E997
:100DD000BB279395F695879577956795B795F1110C
:100DE000F8CFFAF4BB0F11F460FF1BC06F5F7F4FA9
:100DF0008F4F9F4F16C0882311F096E911C07723BB
:100E000021F09EE8872F762F05C0662371F096E8C3
:100E1000862F70E060E02AF09A95660F771F881F92
:100E2000DAF7880F9695879597F9089597F99F6750
:100E300080E870E060E008959F3F31F0915020F429
:100E4000879577956795B795880F911D96958795A6
:100E500097F908959FEF80EC089500240A941616E0
:100E6000170618060906089500240A941216130698
:100E7000140605060895092E0394000C11F4882326
:100E800052F0BB0F40F4BF2B11F460FF04C06F5F42
:100E90007F4F8F4F9F4F089557FD9058440F551F18
:100EA00059F05F3F71F04795880F97FB991F61F0EC
:100EB0009F3F79F087950895121613061406551F63
:100EC000F2CF4695F1DF08C0161617061806991FCF
:100ED000F1CF86957105610508940895E894BB27C4
:100EE00066277727CB0197F90895FA01EE0FFF1FC8
:100EF000309621053105A1F16115710561F4803845
:100F0000BFE39B0749F168949038810561F0803810
:100F1000BFEF9B0741F099234AF5FF3FE1053105FB
:100F2000210519F1E8940894E795D901AA2329F439
:100F3000AB2FBE2FF85FD0F310C0FF5F70F4A69503
:100F4000E0F7F73950F019F0FF3A38F49F779F93A4
:100F50000DD00F9007FC9058089546F00C942A0786
:100F600060E070E080E89FE308954FE79F775F932C
:100F70004F933F932F930E9470082F913F914F9171
:100F80005F910E94EC080C94CD0729F416F00C94A4
:100F900016070C946E070C942A070E945407A8F3B6
:100FA0009638A0F707F80F92E8942BE33AEA48EB5B
:100FB0005FE70E9402090F920F920F924DB75EB742
:100FC0000F920E94B808E2E6F0E00E94FF074F91FE
:100FD0005F91EF91FF91E595EE1FFF1F49F0FE57DE
:100FE000E0684427EE0F441FFA95E1F74195550B51
:100FF0000E9432080F9007FE0C9426080895DF9394
:10100000CF931F930F93FF92EF92DF927B018C019E
:10101000689406C0DA2EEF010E94FF08FE01E894F2
:10102000A5912591359145915591A6F3EF010E9427
:10103000E305FE019701A801DA9469F7DF90EF90CC
:10104000FF900F911F91CF91DF9108959B01AC010B
:1010500060E070E080E89FE30C9438060C9416077B
:101060000C941C070E945407D8F39923C9F3940FDA
:10107000511DA3F39150504094F059F0882332F061
:10108000660F771F881F91505040C1F79E3F510552
:101090002CF7880F911D9695879597F908955F3FD6
:1010A000ACF0983E9CF0BB27869577956795B795F1
:1010B00008F4B1609395C1F7BB0F58F711F460FFC6
:1010C000E8CF6F5F7F4F8F4F9F4FE3CF0C946F0739
:1010D00016F00C941C070C942A0768940C941607BD
:1010E0000E945407A8F39923C1F3AEF3DF93CF9383
:1010F0001F930F93FF92C92FDD2788232AF0219792
:10110000660F771F881FDAF720E030E040E85FEBDA
:101110009FE3883920F0803E38F021968F770E9437
:10112000CC05EAE8F0E004C00E94CC05E7EBF0E073
:101130000E94FF078B01BE01EC01FB2E6F57710966
:101140007595771F880B990B0E94DB0628E132E723
:1011500041E35FE30E94FF08AF2D9801AE01FF90CD
:101160000F911F91CF91DF910E94E3050C943B07F3
:10117000FA01DC01AA0FBB1F9B01AC01BF5728F489
:10118000222733274427507820C0B75190F4AB2F43
:101190000024469537952795011CA395D2F300208E
:1011A00071F0220F331F441FB395DAF30ED00C9465
:1011B000CB0561307105A0E88A07B94630F49B0180
:1011C000AC016627772788279078309621F0208316
:1011D00031834283538308950E94FF080C943B0798
:1011E0000E942D0738F00E94340720F0952311F05B
:1011F0000C9416070C942A0711240C946F070E9474
:101200004C0770F3959FC1F3950F50E0551F629FF7
:10121000F001729FBB27F00DB11D639FAA27F00D4F
:10122000B11DAA1F649F6627B00DA11D661F829F76
:101230002227B00DA11D621F739FB00DA11D621F5B
:10124000839FA00D611D221F749F3327A00D611D78
:10125000231F849F600D211D822F762F6A2F11245A
:101260009F5750409AF0F1F088234AF0EE0FFF1F8D
:10127000BB1F661F771F881F91505040A9F79E3FE4
:10128000510580F00C9416070C946F075F3FE4F350
:10129000983ED4F3869577956795B795F795E7953A
:1012A0009F5FC1F7FE2B880F911D9695879597F943
:0612B0000895F894FFCF41
:1012B60010506C6561736520456E746572204361DC
:1012C60072642050414E3A00506C6561736520454A
:1012D6006E746572204E65772050494E3A00506C08
:1012E6006561736520436F6E6669726D204E657722
:1012F6002050494E3A0057726F6E672050494E2073
:0C130600002066696E6973686564200051
:00000001FF
